:020000040800F2
:10000000A889002019030008032D0008CD2C000842
:10001000012D0008FD150008AD31000800000000AA
:10002000000000000000000000000000590200086D
:10003000B116000800000000B5020008052D0008F8
:1000400033030008330300083303000833030008B8
:1000500033030008330300083303000833030008A8
:100060003303000833030008E516000833030008D3
:100070003303000833030008330300083303000888
:1000800033030008011600083303000800000000D5
:100090000000000000000000000000003303000822
:1000A00033030008D92D0008330300083303000888
:1000B0003303000833030008330300083303000848
:1000C0003303000833030008330300083303000838
:1000D0003303000833030008A131000800000000CA
:1000E0003303000833030008330300080000000056
:1000F00000000000000000000000000033030008C2
:100100000000000033030008330300083303000835
:1001100000000000000000000000000000000000DF
:1001200033030008330300083303000833030008D7
:100130003303000800000000000000000000000081
:100140000000000000000000000000003303000871
:1001500033030008330300083303000833030008A7
:100160003303000833030008000000000000000013
:10017000000000000000000000000000000000007F
:100180000000000033030008000000000000000031
:10019000330300083303000800F002F800F04CF8C5
:1001A0000AA090E8000C82448344AAF10107DA45D2
:1001B00001D100F041F8AFF2090EBAE80F0013F0D8
:1001C000010F18BFFB1A43F0010318471850000035
:1001D00038500000103A24BF78C878C1FAD85207C6
:1001E00024BF30C830C144BF04680C6070470000B1
:1001F0000023002400250026103A28BF78C1FBD830
:10020000520728BF30C148BF0B607047662904F011
:100210007987782900F05881002070471FB504F0D5
:100220006CFF00F099FC04000020002104F0D8FECF
:10023000E0601FBD10B510BD00F0AAFD1146FFF72C
:10024000EDFF03F08FF800F0C8FD03B4FFF7F2FFF5
:1002500003BC02F0D4FF00002C4B19680868B0E81A
:10026000F04F80F30988BFF36F8F4FF0000080F3E9
:10027000118870470000000008480068006880F39B
:1002800008884FF0000080F3148862B661B6BFF3AF
:100290004F8FBFF36F8F00DF00BF00BF08ED00E09E
:1002A000DFF80C00016841F470010160704700BF85
:1002B00088ED00E0EFF30980BFF36F8F134B1A68EE
:1002C0001EF0100F08BF20ED108A20E9F04F1060DB
:1002D00009B44FF0500080F31188BFF34F8FBFF384
:1002E0006F8F04F0EFF84FF0000080F3118809BC25
:1002F00019680868B0E8F04F1EF0100F08BFB0ECA6
:10030000108A80F30988BFF36F8F70471C000020AC
:10031000EFF305807047000009488047094800470F
:10032000FEE7FEE7FEE7FEE7FEE7FEE7FEE7FEE7A5
:10033000FEE7FEE704480549054A064B7047000002
:10034000C92D000899010008A8830020A889002071
:10035000A8850020A8850020704753EA020C00F011
:1003600069802DE9F04B4FF00006002B1FBFB3FA58
:1003700083F503FA05F424FA05F65E4012BF16432E
:10038000B2FA82F502FA05F4C5F120051EBF22FA81
:1003900005FC44EA0C04203556EA044C4FEA1444A8
:1003A00018BF641C4FF000084FF00009904271EB39
:1003B000030C39D3002919BFB1FA81F701FA07F606
:1003C000B0FA80F700FA07F6C7F120071EBF20FA3F
:1003D00007FC46EA0C062037B6FBF4FCA7EB050742
:1003E000103F07F01F0BCBF120060CFA0BFB2CFA89
:1003F00006F644BFB3460026202FA4BF5E464FF04A
:10040000000B5BEA060C08BF4FF0010B19EB0B0960
:10041000ABFB027C48EB0608C01B06FB02CC0BFBC7
:1004200003CC71EB0C01C1E70B460246414648463E
:10043000BDE8F08B13B54FF000004FF00001AFF3B3
:100440000080BDE81C4070470FB4044910B503AAF2
:10045000029800F03DFB10BC5DF814FB98000020F2
:100460002DE9F0410E460446002020622046E16856
:10047000884730B3252805D0D4E901219047206A68
:10048000401CF2E7E168204600278847050018D0A5
:10049000A5F14100192802D820354FF400673246F3
:1004A000294620462760FFF7B1FE40B1012804D05D
:1004B000F61D26F007060836D8E7361DD6E728468B
:1004C000DAE7206ABDE8F08170B504460D462146A2
:1004D0001068AFF300802188090502D50F4A7A44DD
:1004E00002E00E4A7A440E32002104F1240305E0B2
:1004F00000F00F060009965D5E54491C0028F7D1F4
:1005000020780023000704D5702D02D009B1022302
:1005100011322046BDE8704000F072B8464C000031
:10052000032A40F2308010F0030C00F0158011F81F
:10053000013BBCF1020F624498BF11F801CB00F8F7
:10054000013B38BF11F8013BA2F1040298BF00F84B
:1005500001CB38BF00F8013B11F0030300F0CA8261
:10056000083AC0F0088051F8043B083A51F804CB2F
:10057000A0E80810F5E7121D5CBF51F8043B40F8F5
:10058000043BAFF30080D20724BF11F8013B11F800
:1005900001CB48BF11F8012B24BF00F8013B00F844
:1005A00001CB48BF00F8012B70474FF0000200B5A7
:1005B000134694469646203922BFA0E80C50A0E886
:1005C0000C50B1F12001BFF4F7AF090728BFA0E834
:1005D0000C5048BF0CC05DF804EB890028BF40F800
:1005E000042B08BF704748BF20F8022B11F0804F42
:1005F00018BF00F8012B704770477047704770476D
:100600002DE9F0470D4699469246044600F124082C
:100610000168880604D5E06921F01001216000E03E
:100620000120A84201DD471B00E00027A1697A19DB
:1006300002EB0900081AA0612078C00602D4204607
:10064000AFF30080002608E0D4E901211AF8060083
:100650009047206A401C761C20624E45F4DB2078CF
:10066000C0060AD52046AFF3008006E0D4E9012198
:1006700030209047206A401C2062381EA7F10107F5
:10068000F4DC07E0D4E9012118F805009047206A5E
:10069000401C2062281EA5F10105F3DC2046AFF3C3
:1006A00000802078000602D50220BDE8F0870120F6
:1006B000FBE770472DE9FF4F0C461E464FF0FF3712
:1006C0008BB0D2E90001DDF860800A908A46C1F360
:1006D0000A5505B93D46002108464FF00000BAF121
:1006E000000F00F4400005DA00EB80004FF44001F9
:1006F00001EA50004FEA9059B9F1010F00DDB94607
:100700000A9850EA4A000ED044F61050A5F2FF3580
:1007100045432F14B8F1000F1ED07542291E1EDD6F
:10072000C9F100021CE0B8F1010F4FF0000001D048
:10073000302103E0F24305E02154401CB042FBDBD2
:1007400030460022002121540B99C1F80880C1E9EC
:1007500000200FB0BDE8F08FBD1B6D1CDEE74A46E0
:1007600000DA694206A800F099FA06AB93E80700A0
:1007700003AB83E8070050460A9900F077FB8DE849
:100780000700A0F500501F3800900398002D0ADDE7
:1007900042F21F014A460844002303A90390684619
:1007A00000F0E0FD09E0A0F500504A461F380023A4
:1007B00003A90390684600F0EAFD8DE807000004F5
:1007C000000C03D04FF0FF30410800E01046B8F1B4
:1007D000000F03D00022009215461EE0751E05D4BE
:1007E00000F0BEF9303262556D1EF9D5B3460122D4
:1007F000084302D000227F1C04E02078302801D179
:1008000000227F1E002A099784D01DE0112D07DAEF
:1008100000F0A6F9303262556D1C50EA0102F5D1A4
:10082000084302D00098C8B10EE00021681E05E020
:10083000235C625C63542254401E491C8142F7DBF6
:10084000AB46A81B401E0990002004F80B000B9833
:10085000099AC0F80880C0E9002B7AE711264FF00A
:10086000000857E72DE9F04F88460446D21D22F0D4
:10087000070191B0D1E90001CDE90A0102F097FC2E
:1008800002460B98C00F01D02D2007E02068810799
:1008900001D52B2002E0202101EAC000032A0990A3
:1008A00001D0072A05DB03464146204600F0B6F991
:1008B0000BE12078800601D5E06900E00620B8F160
:1008C000650F814606D0B8F1660F18D0B8F1670FF2
:1008D00070D131E00020B9F1110F009001DB11233C
:1008E00001E009F101030AAA01A90CA8FFF7E2FE41
:1008F000DDE90C70002609F10105834647E001207F
:100900004B4600904FF000470AAA01A90CA8FFF738
:10091000D1FEDDE90DB00C995D46002610B909F154
:1009200001000D18B9EB050003D4C0F1FF3609F141
:100930000105A5EB09002BE0B9F1010F01DA4FF039
:1009400001090020B9F1110F0090484601DD112383
:1009500000E003460AAA01A90CA8FFF7ABFEDDE9F7
:100960000C704D4600268346207800070AD4AB451C
:1009700000DA5D4601A8012D04DD411911F8011CC2
:10098000302907D04F4502DA17F1040F04DA0120AD
:1009900082460FE06D1EEEE7002F02DCED1B3E44A9
:1009A00003E0781CA84200DD7D1CB81B00F1010AA1
:1009B0004FF000472078000703D4AA4501DB4FF031
:1009C000FF3A0021B7F1004F0DF143088DF84310B5
:1009D00024D002202B23002F01DA7F422D230A216D
:1009E000021EA0F1010000DC5FB197FBF1FC97FB58
:1009F000F1F201FB1C7C17460CF1300C08F801CD1C
:100A0000EEE7A8F1010003702188090501D5452111
:100A100000E06521A0F1010800F8011C09980FA968
:100A2000A1EB0807FF1D00B10120411901EBEA709D
:100A3000A1693844081A401EA0612078C00602D47B
:100A40002046AFF30080099828B1D4E901219047EE
:100A5000206A401C20622078C00622D52046AFF3D1
:100A600000801EE0002E04DBB34502DD01A8805D9E
:100A700000E03020D4E901219047206A401C206228
:100A8000761CAAF101005FEA000A0AD100F064F8BE
:100A9000C0680168405CD4E901219047206A401C8D
:100AA0002062281EA5F10105DCDC07E0D4E9012164
:100AB00018F8010B9047206A401C2062381EA7F1ED
:100AC0000107F3DC2046AFF30080032011B041E6BC
:100AD000074B70B50D467B4400F08DF80446284660
:100AE00000F04EF910B14FF0FF3070BD204670BDE0
:100AF0005728000010B5203AC0F00B80B1E818501C
:100B0000203AA0E81850B1E81850A0E81850BFF4F7
:100B1000F5AF5FEA027C24BFB1E81850A0E8185096
:100B200044BF18C918C0BDE810405FEA827C24BFEA
:100B300051F8043B40F8043B08BF7047D20728BF78
:100B400031F8023B48BF11F8012B28BF20F8023BC7
:100B500048BF00F8012B70470048704768830020A9
:100B600030B5B0F10A024FEA900E71F100034EEA7F
:100B7000817EB0EB0E0061EB91014FEA101E4EEA50
:100B8000017E10EB0E0041EB11114FEA102E4EEAE0
:100B9000016E10EB0E0041EB11214FEA104E4EEAB0
:100BA000014E10EB0E0041EB1141401841F10001E4
:100BB0004FEAD00040EA41704FEAD10110EB8005C6
:100BC0004FEA810444EA907444EB01046D1944EB4C
:100BD0000404521BA3414FF0000348BF0A3200D562
:100BE00030BD401C41F1000130BD000001694A1CCC
:100BF00002610878704700B58FB0CDE9013100215E
:100C0000059105497944CDE9031011466846FFF77F
:100C100027FC0FB000BD0000E5FFFFFF2DE9F0410C
:100C20001F46044603260168072A01F4006004DB1E
:100C300008B116A505E016A503E008B115A500E06A
:100C400015A521F010002060A069C01EA0610FB1A1
:100C5000401EA0612046AFF300804FB1D4E90121CE
:100C600038469047206A401C2062C01C206206E083
:100C7000206AFAE7D4E9012115F8010B9047761EA6
:100C8000F8D22046AFF30080BDE8F0814E414E001F
:100C90006E616E00494E4600696E66002DE9F047B0
:100CA000814616468AB0354878440DC88DE80D0057
:100CB00032487844801C03AC0DC884E80D0041F62E
:100CC0009B300844372190FBF1F290FBF1F5A5F140
:100CD000800501FB12041B3C02D56442012000E0A8
:100CE0000020DFF898A080460027FA44AAF1BE0A47
:100CF0000EE0E0070AD03246684607EB47010123C1
:100D00000AEB810100F043FB8DE8070064107F1CB3
:100D1000002CEED1194F7F44AE3F19E0E80715D003
:100D200007EB04100DF1180A90E80E008AE80E0097
:100D3000C068F04201D1981908903246012306A9F3
:100D400003A800F024FB03AB83E807006D10641CCC
:100D5000002DE3D14FF0010332466946B8F1000F90
:100D600003A802D000F0FEFA01E000F010FBC9E990
:100D70000001C9F808200AB0BDE8F087204500004E
:100D8000007B00F0800070470048704748830020D7
:100D90007546FFF7F9FFAE4605006946534620F059
:100DA0000700854618B020B5FFF7C4FABDE820401B
:100DB0004FF000064FF000074FF000084FF0000B17
:100DC00021F00701AC46ACE8C009ACE8C009ACE8CA
:100DD000C009ACE8C0098D46704710B50446AFF3B2
:100DE00000802046BDE81040FFF72FBA4FF0013CCD
:100DF00050F8042B51F8043B9A4221D1A2EB0C038A
:100E0000934313EACC1317D150F8042B51F8043B49
:100E10009A4215D1A2EB0C03934313EACC130BD1E6
:100E200050F8042B51F8043B9A4209D1A2EB0C0371
:100E3000934313EACC13DBD04FF00000704700BFA0
:100E4000D01A01BAB1FA81F101F0180122FA01F0C9
:100E5000CB40C1F12001DBB2C0B2C01A2CFA01F3C1
:100E6000D11A914311EAC311E6D170475FEA400CF1
:100E700008BF91F0000F4FEA8C234FEAC12243EAEA
:100E800051514FEA1C5018BF00F5F0404FEA3000B6
:100E900018BF41F000415FEA6C5C00F02980BCF1B2
:100EA000FF3F08BF40F080407047130C06BF12049C
:100EB0004FF0100C4FF0000C130E04BF12020CF197
:100EC000080C130F04BF12010CF1040C930F04BFA4
:100ED00092000CF1020CD30F04BF52000CF1010C74
:100EE00011464FF00002A0F11F00A0EB0C0070476C
:100EF00011F0004F08BF704731F000413FF4D5AF0B
:100F00000B0C06BF09044FF0100C4FF0000C0B0E39
:100F100004BF09020CF1080C0B0F04BF09010CF10E
:100F2000040C8B0F04BF89000CF1020CCB0F04BF23
:100F300049000CF1010CCCF12003A0EB0C0022FACB
:100F400003F302FA0CF241EA030100F101007047D9
:100F500020F07F4C80EA030023F07F47ACEB0703CF
:100F600003F57C5300F0004003F1FF032DE98049B5
:100F70004FEA154B09B44FEA144325EA0B4E24EA15
:100F800003480FF2042606EB132749083E785FEA70
:100F9000320203FB0667C7F5000707FB06F64FEAB8
:100FA00054374FEAD64606F1020607FB066CCCF131
:100FB000005C4FEA1C472CEA074C07FB06F40CFBCD
:100FC00006F504EB15464FEA961634BF00204FF0A5
:100FD00000404FEAD13706FB07FC4FEA1C4C0CFBE4
:100FE0000BF7D21B03FB0CF761EB07010CFB0EF7B1
:100FF000B0EB074072EB17420CFB08F734BFA2EBD3
:101000000742B2EB074261EB17414FEA0C444FEA4B
:10101000910706FB07FC4FEA1C4C0CFB0BF7B0EBEF
:10102000C74072EB573203FB0CF734BFA2EBC74249
:10103000B2EBC74261EB57310CFB0EF7B0EBC700C8
:1010400072EB57720CFB08F734BFA2EBC702B2EB8E
:10105000C70261EB5771039F4FEA816141EA921128
:1010600004EBCC044FEAD1374FEA826206FB07FC5F
:1010700042EA90124FEA80604FEA1C4C0CFB0BF7DF
:10108000D21B03FB0CF761EB07010CFB0EF7B0EB77
:10109000074072EB17420CFB08F734BFA2EB074284
:1010A000B2EB074261EB17414FEA8C554FEA9107CB
:1010B00004EB9C2406FB07FC4FEA1C4C0CFB0BF7D3
:1010C000B0EBC74072EB573203FB0CF734BFA2EB17
:1010D000C742B2EBC74261EB57310CFB0EF7B0EBE6
:1010E000C70072EB57720CFB08F734BFA2EBC702C4
:1010F000B2EBC70261EB577115EB4C254FEA8161EA
:1011000041EA92114FEA82624FEAD13742EA9012E5
:1011100006FB07FC44F100044FEA80604FEA1C4CD8
:101120000CFB0BF7D21B03FB0CF761EB07010CFB6D
:101130000EF7B0EB074072EB17420CFB08F734BF19
:10114000A2EB0742B2EB074261EB174115EB1C150E
:101150004FEA813141EA92414FEA823242EA9042BB
:101160004FEA80304FEA0C7644F1000448EA03432A
:101170004EEA0B484FF0000EB2EB080C71EB030780
:1011800024BF624639464EEB0E0E4FF0000B00189E
:10119000524149414BEB0B0BB2EB080C71EB0307CF
:1011A0007BF1000B24BF624639464EEB0E0E4FF02A
:1011B000000B0018524149414BEB0B0BB2EB080CF2
:1011C00071EB03077BF1000B24BF624639464EEBFF
:1011D0000E0E51EA020718BF46F0010616EB0E7616
:1011E00055F1000254F1000103D5BDE88901BDE8C5
:1011F0000088BDE88901BDE80048B619524141EBBD
:101200000101A3F10103704780807F7E7D7C7B7AA2
:101210007978777676757473727171706F6E6E6DA2
:101220006C6C6B6A6A696868676666656464636348
:1012300062616160605F5F5E5E5D5D5C5C5B5B5ACE
:101240005A5959585857575656555555545453533B
:1012500052525251515050504F4F4F4E4E4D4D4D96
:101260004C4C4C4B4B4B4A4A4A49494948484847E1
:10127000474747464646454545444444444343431F
:101280004342424242414141002B9C4630D47700C8
:101290002BD01CB54FEA370703B44FF010004FF0C6
:1012A0001001BAF1000F06D0BCF1000FDCBF40F016
:1012B000080040F008014FF000000FBCBDE81040EE
:1012C0000BF1010BBBF1010F08BF5FEA170722BF4B
:1012D00012F1010211F101014FF0004143F100034D
:1012E00000F0004043EA00007047F9D35708D0E708
:1012F00046EA064613F1400F4FEA16461FDD13F18A
:10130000200FDFBF16430A46002120335B42BED0C8
:10131000C3F1200746EA064602FA07F74FEA1646E7
:1013200046EA0706C3F1200722FA03F201FA07F79B
:1013300021FA03F14FF0000342EA0702A7E746EA69
:10134000020646EA06464FEA164646EA0106BCBFD2
:1013500046EA0646360C4FF000034FF000024FF00D
:10136000000194E72DE9804C9A46934670B491E8C9
:10137000380007C831EA400C48BF34EA430C03D5B3
:10138000FFF7E6FDFFF780FFF0BCBDE8008C2DE91C
:10139000804C9A46934670B491E8380007C810F024
:1013A000804F08BF13F0804F03D100F005F8FFF71E
:1013B0006BFFF0BCBDE8008C20F07F4780EA0300A3
:1013C00023F07F4C07EB0C03A3F57C5300F00040A7
:1013D000A3F1FE0392F0000F00F0B38095F0000F30
:1013E00000F077802DE901494FEA11404FEA144699
:1013F00021EA004800FB06FC24EA064708FB06F643
:1014000007FB08F800FB07F718EB06484CEB164CF7
:101410004FEA124B18EB07484FEA15464CEB1740C2
:1014200022EA0B4E0BFB06FC25EA06470EFB06F6EE
:1014300007FB0EFE0BFB07F71EEB064E4CEB164CA4
:101440004FF000061EEB074E4CEB174B18EB0B084A
:1014500040F1000018EB0E0B58EB000840F10000C3
:101460008F1A4FF000013CBFC943661B14BFB5EB98
:10147000040C00213CBFC943F61B4FEA17444EEA57
:101480008E0E27EA04454FEA1C4704FB07622CEA4C
:10149000074C05FB07F70CFB05F604FB0CFC16EBF1
:1014A000074642EB174216EB0C4642EB1C421BEB85
:1014B000060658EB0202414146EA9E0601D5BDE808
:1014C0000189B619524141EB0101A3F10103BDE8C5
:1014D00001894FEA14454FEA114724EA054621EAFB
:1014E000074C05FB07F406FB07F70CFB06F105FBB1
:1014F0000CFC11EB074144EB17444FEA124711EB88
:101500000C4144EB1C4422EA074C05FB07F206FBA6
:1015100007F70CFB06F605FB0CFC16EB074642EB47
:10152000174216EB0C4642EB1C456A1854F10001B9
:1015300048BF7047B619524141EB0101A3F10103C5
:10154000704795F0000F37D04FEA11424FEA144729
:1015500021EA024624EA074C02FB07F106FB07F7E3
:101560000CFB06F402FB0CFC14EB074441EB1741A7
:101570004FEA154714EB0C4441EB1C4125EA074C9C
:1015800002FB07F506FB07F70CFB06F602FB0CFC5B
:1015900016EB074645EB174516EB0C4645EB1C4290
:1015A000121951F1000148BF7047B619524141EB81
:1015B0000101A3F1010370474FEA14454FEA1147B7
:1015C00024EA054621EA074C05FB07F106FB07F76D
:1015D0000CFB06F24FF0000605FB0CFC12EB074279
:1015E00041EB174112EB0C4251EB1C4148BF7047D5
:1015F000921841EB0101A3F101037047FEE70000DF
:10160000014800F0D3B80000FC81002001681823D5
:10161000CAB2103AB2FBF3F2054B6FF30901032A89
:101620009B5CC36500D9091D8165084670470000B1
:101630000851000810B5014600208B698A6A4FF0F6
:10164000C07453B1B3F5005F15D072B1012A0CD04C
:10165000022A0AD0032A09D104E01AB1012A06D0CD
:10166000022A03D1C96AC90100D5012010BDC96A87
:10167000A142FAD010BD002AF7D0012AF2D0022AE6
:10168000F3D0032AF3D010BD30B50468256825F4E3
:1016900080252560046863608368402B036803D05D
:1016A00099600068C26030BD9A600068C16030BD5A
:1016B0007047000008B50020009008486946806A1D
:1016C00003F04FF90098002807D005494FF08050EB
:1016D0000860BFF34F8FBFF36F8F08BDB8000020C5
:1016E00004ED00E0024910200860FFF7E3BF0000AE
:1016F000143C01402DE9F0410446876D00F0B8FA32
:10170000064694F835000025022806D08020606542
:1017100084F834500120BDE8F0812068016821F090
:10172000160101602068416921F080014161206C4F
:1017300008B9A06C20B12068016821F0080101609F
:101740002068016821F0010101600CE000F090FACE
:10175000801B052807D920206065032084F8350008
:1017600084F83450D7E720680068C007EED194F8B9
:101770005C103F208840B860012084F8350084F870
:1017800034500020C7E790F83510022903D080219B
:10179000416501207047052180F835100068016817
:1017A00021F0010101600020704700002DE9F8439D
:1017B00004464FF00009CDF8009063484FF41651ED
:1017C000A56D0068B0FBF1F72E6894F85C10082056
:1017D00000FA01F131420FD021680A6852070BD597
:1017E0000A6822F004020A6094F85C108840A8603D
:1017F000606D40F00100606594F85C104FF00108E6
:1018000008FA01F0304208D021684969090604D578
:10181000A860606D40F00200606594F85C100420E0
:101820008840304208D021680968890704D5A8603B
:10183000606D40F00400606594F85C1010208840F2
:10184000304218D021680968090714D5A8602068BB
:101850000168490304D50068000308D5A16C07E0BE
:101860000168C90503D4016821F008010160216CF9
:1018700009B12046884794F85C1020208840304207
:1018800031D021680968C9062DD5A86094F83500C3
:1018900005282068016806D0490347D50068000381
:1018A0001DD4616C1CE021F01601016020684169C3
:1018B00021F080014161206C08B9A06C20B1206842
:1018C000016821F00801016094F85C103F20884015
:1018D000A86084F8358084F83490216D1FE0E16BB6
:1018E00009B120468847606D00282BD0606DC00785
:1018F00014D0052084F835002068016821F001012A
:1019000001600098401C0090B84203D8206800682D
:10191000C007F6D184F8358084F83490E16C002952
:1019200010D001B02046BDE8F04308470168C90562
:10193000D5D4016821F01001016084F8358084F865
:101940003490CCE7BDE8F883180000202DE9F04181
:10195000044600F08DF906465CB1022084F835009B
:10196000002584F834502068016821F001010160ED
:101970000DE00120BDE8F08100F07AF9801B052818
:1019800005D920206065032084F83500F2E720683F
:101990000068C007F0D12268116820480140D4E9EE
:1019A00001031843D4E903363343184363691843EA
:1019B000A3691843E3691843236A18430843616A1B
:1019C000042903D1D4E90B1319430843106020689C
:1019D0004069666A20F0070130460E43012704285B
:1019E0000CD1A06A0643E06A40B12046FFF722FE10
:1019F00020B14020606584F83570BAE72068466100
:101A00002046FFF703FE94F85C203F21914081605F
:101A1000656584F835700020ACE700003F8010F069
:101A20002DE9F0410446866D90F834000025012828
:101A30000DD0012084F8340094F835700020012F77
:101A400007D084F8340002252846BDE8F081022042
:101A5000FBE7022784F8357060652046FFF714FE27
:101A600094F85C103F208840B0602068016841F025
:101A700016010160206C20B12068016841F0080166
:101A800001602068016841F001010160DCE70000AD
:101A90002DE9F84FDFF8B8A10022012403254FF00B
:101AA0000F090AF1040BAAF1040E00BF0B6804FA37
:101AB00002F63340B34273D10F7907F00307012FC9
:101AC00001D0022F16D187684FEA420805FA08FCB8
:101AD00027EA0C07D1F80CC00CFA08FC4CEA070CFA
:101AE000C0F808C04768B7430E79C6F300169640A1
:101AF0003E4346600E79F643B6070DD0C7685600E0
:101B000005FA06FC27EA0C07D1F808C00CFA06FC17
:101B10004CEA070CC0F80CC00E7906F00306022E42
:101B200010D1D60800EB8608D8F8206057074FEA96
:101B3000D76C09FA0CF7BE430F6907FA0CF7374365
:101B4000C8F8207006684FEA420C05FA0CF7BE434D
:101B50000F7907F0030707FA0CF7374307604E6861
:101B600016F4403F6DD03B4E376847F480473760EE
:101B7000366822F0030706F480460096364E07EBDF
:101B8000060CDCF8086897073F0F09FA07F826EA01
:101B90000806DFF8C880404503D14FF000081EE07A
:101BA0004FE0DFF8BC80404502D14FF0010816E05D
:101BB000DFF8B080404502D14FF002080FE0DFF8B7
:101BC000A880404502D14FF0030808E0DFF89C8070
:101BD000404502D14FF0040801E04FF0070808FA31
:101BE00007F848EA0608CCF80888DAF80060574693
:101BF000D1F804C09E435FEACC2C00D51E433E6062
:101C0000DBF800605F46D1F804C09E435FEA8C2C8D
:101C100000D51E433E60DEF800607746D1F804C070
:101C20009E435FEA8C3C00D51E433E60084F083F50
:101C30003E68D1F804C09E435FEACC3C00D51E4309
:101C40003E60521C102AFFF431AFBDE8F88F00004F
:101C5000083C01404438024000300140000002408E
:101C60000004024000080240000C02400010024044
:101C700001488068704700000C00002070B5040027
:101C800025D094F83D00002520B984F83C5020462A
:101C900000F0B8F8242084F83D002068016821F0A5
:101CA000010101602068016841F400410160206881
:101CB000016821F40041016000F03CFA4D4A61687E
:101CC000914201D84C4900E04C49884201D20120A0
:101CD00070BD4B492368B0FBF1F15E6826F03F060A
:101CE0000E435E606368934206D94FF4967359437E
:101CF0004FF47A73B1FBF3F12368491C1E6A26F096
:101D00003F06314319626168914210D84900401E74
:101D1000B0FBF1F2521CC2F30B02042A01D20420E0
:101D200022E0B0FBF1F0401CC0F30B001CE0A26805
:101D3000F2B301EBC10303EB0116431EB3FBF6F351
:101D40005B1C43F480431B0549D092B301EBC102F5
:101D500002EB0111401EB0FBF1F0401CC0F30B0080
:101D600040F4804040F400402168CA694CF6FF739B
:101D70009A431043C861D4E9071001432068026800
:101D800022F0C00211430160D4E90301014320683D
:101D9000826848F2FF339A4311438160D4E9050118
:101DA00008432168CA6822F0FF021043C86001E0BE
:101DB0000EE016E02068016841F001010160256431
:101DC000202084F83D00256384F83E50002070BD3B
:101DD00001EB4106431EB3FBF6F35B1CB3E70120A6
:101DE000C2E701EB4101401EB0FBF1F0401CC0F323
:101DF0000B00B7E7A086010080841E0000093D00AB
:101E000040420F0010B586B0044614216846FEF724
:101E1000CCFB14492068884221D113480021026874
:101E200042F400120260006800F4001005900E48B1
:101E30001038026842F002020260006800F00200FE
:101E400005904FF4407000901220CDE9010103206D
:101E500003900420049069460448FFF719FE06B079
:101E600010BD000000540040403802400004024011
:101E70000248816802781144816070470C0000209C
:101E80000B4810B5016841F400710160016841F42C
:101E900080610160016841F480710160032000F0FD
:101EA0007DF80F2000F006F800F04AF8002010BD81
:101EB000003C024030B505461C4887B0002401684C
:101EC00041F001010160006806A900F001000090E6
:101ED00001A800F00FF900F03DF915494000B0FBF2
:101EE000F1F11548134A491E026040F2E732C0E999
:101EF0000324C0E90114846100F06CFB040012D1DA
:101F00000D4800F095FB04000DD1192000F019F8E0
:101F1000102D07D200222946192000F01FF807488B
:101F2000056000E0012407B0204630BD443802407F
:101F300040420F0000000140580600201000002021
:101F40007047002809DB00F01F0201219140400981
:101F5000800000F1E020C0F800117047F0B40E4B93
:101F60001B680C46C3F30223C3F10705042D00D9F7
:101F70000425191D072901D2002300E0DB1E0126DC
:101F800006FA05F1491E214099409E40761E1640F2
:101F90003143F0BC01F023B90CED00E0064900F03C
:101FA000070208684FF6FF03184040EA0220034A80
:101FB00010430860704700000CED00E00000FA05D7
:101FC0002DE9F0470E46050065D0DFF81481D8F8FA
:101FD0000000F7B200F00700B04207D288F80070A6
:101FE000D8F8000000F00700B04254D128683D4CFA
:101FF000810712D5400703D5206840F4E0502060E7
:102000002878000703D5206840F4604020602068ED
:10201000A96820F0F000084320602878C0072DD080
:10202000304968680839012812D0022813D00328E3
:1020300011D00968890700292DDA216821F00301F0
:1020400001432160FFF714FE814641F2883A0EE019
:1020500009688903EFE709688901ECE7FFF708FEE3
:10206000A0EB0901514502D90320BDE8F0872068A3
:10207000696800F00C00B0EB810FEFD1D8F80010C8
:10208000404601F00701B14207D90770006800F02F
:102090000700B04201D00120E7E72878400705D5C6
:1020A0002068E96820F4E0500843206028780007A1
:1020B00006D52068296920F4604040EAC10020600C
:1020C00000F058F82168084AC1F30311515CC84078
:1020D0000649086006480068FFF7ECFE0020C4E7E8
:1020E000003C02400838024010510008180000204F
:1020F000100000200F2202600C4A136803F0030353
:102100004360136803F0F0038360136803F4E05343
:10211000C36012684FF4E05303EAD202026104483C
:10212000006800F0070008607047000008380240AF
:10213000003C02400448054900680968044AC1F3AC
:102140008221515CC84070471800002008380240C6
:10215000205100080448054900680968044AC1F391
:102160004231515CC84070471800002008380240D6
:1021700020510008154810B5006810F00C021448F2
:1021800013D01449042A0FD0082A0ED10F4C241F53
:102190002268236802F03F025B0207D52068C0F383
:1021A0008810A0FB010106E0084610BD2168C1F3BC
:1021B0008811A1FB00010023FEF7CFF82168C1F3CD
:1021C0000141491C4900B0FBF1F010BD0838024044
:1021D0000024F40040787D01F0B51F4C16460D46F2
:1021E0001D4B002102220327283C0028186887B0D5
:1021F00019D040F004001860186800F00400059041
:1022000010020090CDE90121CDE903716946134820
:10221000FFF73EFC206845EAC60120F078400843FD
:10222000206007B0F0BD40F001001860186800F0B1
:10223000010005904FF480700090CDE90121CDE9B7
:10224000037169460648FFF723FC2068354320F0F8
:10225000EC602843E4E70000303802400008024008
:10226000000002402DE9F84F04006ED02078DFF81E
:102270004C93C007A9F104054AD009F10400016894
:10228000C1F38101012908D00068C0F38100022850
:102290000AD1D9F80000400206D52868800337D556
:1022A00060680028E1D033E06068B0F5803F10D06E
:1022B000B0F5A02F286810D020F48030286028685E
:1022C00020F4802028606068A8B1FFF7D1FC0646A2
:1022D0000DE0286840F48030F4E740F48020286066
:1022E000F7E700BFFFF7C4FC801B642873D8286899
:1022F0008003F7D50CE0FFF7BBFC064605E000BF06
:10230000FFF7B6FC801B6428F0D828688003F7D458
:102310002078DFF8AC8280074FF0000A3ED5A7484E
:10232000001D016811F00C0F08D00068C0F3810097
:1023300002280BD1D9F80000400207D42868800792
:1023400016D5E068012800D112E033E1E068B8B1A9
:102350000120C8F80000FFF78BFC064605E000BF2F
:10236000FFF786FC801B0228C0D828688007F7D5B5
:102370002868216920F0F80040EAC10028600DE0DB
:10238000C8F800A0FFF774FC064604E0FFF770FCF5
:10239000801B02281FD828688007F7D42078000700
:1023A00022D5864F87486169703771B1012101607C
:1023B000FFF75EFC064604E0FFF75AFC801B02288C
:1023C00009D838688007F7D50EE0C0F800A0FFF7FD
:1023D0004FFC064605E082E0FFF74AFC801B02281E
:1023E0007DD838688007F7D42078400768D5DFF8B3
:1023F000CCB100270BF13C0BDBF80000C0000BD484
:10240000DBF8001041F08051CBF80010DBF8000041
:10241000012700F0805000906B4E3068C00510D44A
:10242000306840F480703060FFF722FC009005E0D7
:10243000FFF71EFC0099401A022850D83068C005EA
:10244000F6D55E4EA0686C3601280FD0052830689E
:1024500010D020F001003060306820F004003060BF
:10246000A068B8B1FFF704FC00900FE0306840F0BE
:102470000100F4E740F004003060F7E7FFF7F8FBF5
:102480000099411A41F28830814266D8306880074D
:10249000F4D50EE0FFF7ECFB009007E0FFF7E8FB58
:1024A0000099411A41F28830814256D8306880073D
:1024B000F4D42FB1DBF8001021F08051CBF80010DC
:1024C000A069C8B33D49091D0968C1F3810102290A
:1024D0004AD00228504607D0C8F8600000E03CE02F
:1024E000FFF7C6FB04463BE04746C8F86000FFF72D
:1024F000BFFB064605E000BFFFF7BAFB801B0228C2
:102500002BD828688001F7D4D4E907010843A16AD1
:102510002E4A490802EB0141626A41EA82110843EE
:1025200094F82C1040EA0161C9F8001001203866C7
:10253000FFF79EFB044606E03EE000BFFFF798FB76
:10254000001B022809D828688001F7D534E000BFB5
:10255000FFF78EFB001B022802D90320BDE8F88F8D
:1025600028688001F4D427E00128F7D0D9F80000CA
:10257000E26900F4800191421CD1226A00F03F011F
:10258000914217D147F6C071626A0140B1EB821FD8
:1025900010D1A26A4FF0FF3300F4403103EB520236
:1025A000B1EB024F06D194F82C1000F07060B0EB44
:1025B000016F01D00120D1E70020CFE704380240AD
:1025C00000004742800E4742007000400000FFFFBD
:1025D0007047704710B5040003D094F83D0010B167
:1025E00007E0012010BD002084F83C00204600F0E8
:1025F0001EF8022084F83D00211D206800F0F2FB47
:10260000012084F8460084F83E0084F83F0084F8F6
:10261000400084F8410084F8420084F8430084F8C4
:10262000440084F8450084F83D00002010BD704748
:1026300090F83D10012901D001207047022180F857
:102640003D100168CA6842F00102CA6000680E4984
:1026500088420ED0B0F1804F0BD00C49884208D090
:102660000B49884205D00B49884202D00A4988426A
:1026700004D1816801F00701062903D0016841F007
:10268000010101600020704700000140000400408B
:1026900000080040000C00400040014070472DE958
:1026A000F04104460068C66805694FF00007A907B5
:1026B00013D5B10711D5F91E0161012020772068DB
:1026C00080698007204602D0FFF7E8FF04E000F0B1
:1026D0007EF8204600F07CF82777680716D570074B
:1026E00014D521686FF0040008610220207720686B
:1026F000806910F4407F204602D0FFF7CFFF04E04E
:1027000000F065F8204600F063F82777280715D514
:10271000300713D521686FF0080008610420207786
:102720002068C0698007204602D0FFF7B7FF04E0A9
:1027300000F04DF8204600F04BF82777E80616D554
:10274000F00614D521686FF010000861082020778A
:102750002068C06910F4407F204602D0FFF79EFF3A
:1027600004E000F034F8204600F032F82777E8075C
:1027700008D0F00706D021686FF0010008612046FC
:1027800000F028F8280608D5300606D521686FF035
:10279000800008612046FFF71BFF680608D5700619
:1027A00006D521686FF040000861204600F01CF853
:1027B000A8060AD5B00608D521686FF02000086188
:1027C0002046BDE8F041FFF704BFBDE8F081704747
:1027D0007047000000680349884201D1FFF748BBF9
:1027E00070470000000001407047704770470000CC
:1027F000F8B5016804460868CA684B6910F00F0F05
:102800004FF0000559D003F0010602F490773743EA
:1028100065D0C10705D0D10503D5616C41F0010138
:102820006164410705D5D90703D0616C41F002010D
:102830006164810705D5D90703D0616C41F00401BB
:102840006164010707D502F02001314303D0616CB8
:1028500041F008016164616C00293AD0800604D51A
:10286000900602D5204600F097FB20684069616C15
:10287000C0F38010090700D460B3204600F057FB76
:1028800020684069400621D52068143050E8001FB8
:1028900021F0400140E80012002AF5D1E06BA8B118
:1028A0006E490165E06BFEF76EFF002811D0E06B0A
:1028B000016D01B0BDE8F040084783060FD59306CF
:1028C0000DD52046BDE8F84000F066BB2046FFF776
:1028D0008DFFF8BD2046FFF789FF6564F8BD266BC4
:1028E0002023012E7DD1C6067BD5D60679D5086872
:1028F0004868009048694FF00206400641D5E16BF8
:10290000086840680004000CE8D0A28D8242E5D936
:10291000E085C869B0F5807F2DD020680C3050E884
:10292000001F21F4807140E80012002AF5D12068D0
:10293000143050E8001F21F0010140E80012002A85
:10294000F5D12068143050E8001F21F0400140E824
:102950000012002AF5D184F84230256320680C303B
:1029600050E8001F21F0100140E80012002AF5D1C4
:10297000E06BFEF7BFFE6663A08DE18D401A81B269
:102980002AE0A08DE18D401A81B2E08D0028A5D00B
:102990000029A3D022680C3252E8000F20F4907076
:1029A00042E80007002FF5D12068143050E8002FCE
:1029B00022F0010240E80027002FF5D184F84230D0
:1029C000256320680C3050E8002F22F0100240E808
:1029D0000023002BF5D166632046FFF706FFF8BD04
:1029E000FFE705062BD5150629D594F841002128C7
:1029F000F5D1A068B0F5805F01D12069B0B1206A3F
:102A0000411C2162216800784860E08C401E00046F
:102A1000000CE084E3D12068C16821F08001C1602E
:102A20002068C16841F04001C160D8E7206A008891
:102A3000C0F308004860206A801C2062E5E7400679
:102A4000CDD55006CBD5CA68204622F04002CA60D8
:102A500084F8413000F038F9C1E70000892E000801
:102A600070B5040004D094F84100002510B106E0D0
:102A7000012070BD84F84050204600F023F8242047
:102A800084F841002068C16821F40051C1602046EB
:102A900000F0E4FA2068016921F4904101612068A6
:102AA000416921F02A0141612068C16841F4005167
:102AB000C1606564202084F8410084F842006563A9
:102AC000002070BDF0B587B0064614216846FDF7BA
:102AD0006CFDDFF814C1306800254449022203234D
:102AE0000727434C60454FD140481030D0F800C014
:102AF0004CF4003CC0F800C0006800F400300590C1
:102B0000086840F001000860086800F001000590C6
:102B1000086840F4001008600868694600F4001076
:102B200005900D208DE82500CDE903372046FEF7FE
:102B3000AFFF314C2F4820604FF0006060604020B4
:102B4000C4E902050001C4E90405C001A561C4E9A6
:102B500007506562A562E56220462563FEF7F6FE32
:102B6000B463002205212620A663FFF7F7F926208B
:102B7000FFF7E7F9002205211120FFF7EFF91120F7
:102B8000FFF7DFF907B0F0BD1C4DA842FAD1174896
:102B90001430056845F010050560006800F010006D
:102BA0000590086840F001000860086800F0010026
:102BB0000590086840F002000860086802AD00F067
:102BC000020005904FF40040CDE90002012085E8A5
:102BD000890069462046FEF75BFF082000906946A1
:102BE0000748FEF755FFCDE700440040303802406B
:102BF00000000240A0600240FC8100200010014063
:102C00000004024090F84230202B01D0022070478F
:102C100021B11AB10023036300F0A6BA0120704766
:102C200010B50068074988420AD10748007800F0CB
:102C30004DFBBDE81040012203490448FFF7E2BF05
:102C400010BD0000004400409C000020B481002022
:102C500070B5044690F84100202801D0022070BDD4
:102C600049B342B32162A284E2840020606421233C
:102C700084F84130A56B114BEB63A56B104B2B64B3
:102C8000A56B104BEB64A36B1865256813462A1DD2
:102C9000A06BFEF7C5FE21686FF040000860206859
:102CA000143050E8001F41F0800140E80012002A73
:102CB000F5D1002070BD012070BD0000E32E00089A
:102CC000252F0008992E000870477047FEE7000086
:102CD000094808494FF480420160084941600021D9
:102CE0008160C0E9031241618161C1610162FEF747
:102CF000C5BF0000005400405C820020801A06001E
:102D0000FEE7FEE710B5502080F31188BFF34F8F28
:102D1000BFF36F8F01F0B6FF18B104494FF0805038
:102D20000860002080F3118810BD000004ED00E071
:102D300030B593B030216846FDF737FC14210CA85C
:102D4000FDF733FC1E480025016841F08051016009
:102D5000006800F0805011901A48016841F4404129
:102D600001600068022400F44040119001200390AB
:102D70001020009406940490CDE90750C020CDE9BE
:102D8000090404200B906846FFF76CFA08B172B68C
:102D9000FEE70CA90F2081E831004FF480500F901E
:102DA000109003210CA8FFF70BF908B172B6FEE7EB
:102DB000002211461046FFF70FFA13B030BD000095
:102DC00040380240007000400248016841F4700140
:102DD0000160704788ED00E00148FFF760BC00002B
:102DE00058060020F0B50268204B214C9F03214D6E
:102DF000214E984207D0B84205D0A04203D0A84245
:102E000001D0B04204D122F0700C4A6842EA0C02B0
:102E1000984210D0B8420ED0A0420CD0A8420AD09E
:102E2000B04208D0154CA04205D0154CA04202D0AB
:102E3000144CA04203D122F44074CA6822434C6966
:102E400022F08002224302608A68C2620A688262BB
:102E5000984201D109690163012141610169C907F2
:102E600003D0016921F001010161F0BD00000140C2
:102E70000004004000080040000C004000400140F9
:102E8000004401400048014010B5806B0021C1851D
:102E9000C184FFF7ABFC10BD70B5846B206840693E
:102EA00094F84110C0F3C0100025212904D118B1B5
:102EB000E584204600F062F82068406994F84210EA
:102EC000C0F38010222904D118B1E585204600F016
:102ED0002EF8606C40F0100060642046FFF786FC1E
:102EE00070BD10B50146806B09680968C90516D424
:102EF0000021C1840168143151E8002F22F08002C2
:102F000041E80023002BF5D101680C3151E8002F76
:102F100042F0400241E80023002BF5D110BDFFF73D
:102F2000D3FE10BD10B5806BFFF7CFFE10BD01685A
:102F30000C3151E8002F22F4907241E80023002B5D
:102F4000F5D10168143151E8002F22F0010241E867
:102F50000023002BF5D1016B012909D101680C3147
:102F600051E8002F22F0100241E80023002BF5D198
:102F7000202180F8421000210163704701680C3164
:102F800051E8002F22F0C00241E80023002BF5D1C8
:102F9000202180F84110704708B590F8421022298E
:102FA00001D0022008BD82684FF480539A4201D1BB
:102FB000016921B1816A9A421BD04AB10AE00268D4
:102FC000816A5268C2F308020A80816A891C08E09B
:102FD000026972B10268526802F07F020A70816A67
:102FE000491C8162C18D491E0904090CC18503D0A9
:102FF0001BE002685268F1E70168CA6822F020020B
:10300000CA600168CA6822F48072CA6001684A69AD
:1030100022F001024A61202180F842100021416320
:10302000026B012A03D0FFF7FBFD002008BD0163FE
:1030300001680C3151E8002F22F0100241E8002312
:10304000002BF5D101680A68D20602D50A684968E2
:103050000091818DFFF7C9FBE7E7000070B50446DA
:1030600000680169E26821F440511143016121695E
:10307000A068E26908436169114308432168CA688E
:1030800049F20C639A430243CA6020684169A2690D
:1030900021F440711143416131492068884202D0D6
:1030A0003049884202D1FFF755F801E0FFF742F8B6
:1030B000E2690023192164253226B2F5004F6268C7
:1030C00028D0A0FB0101930F9200FDF746F90146BD
:1030D000B0FBF5F06FF01802504301EB800006EBF7
:1030E0000010B0FBF5F000F0F002B1FBF5F002EBE0
:1030F0000012B1FBF5F06FF01803584301EB8000AC
:1031000006EB0010B0FBF5F000F00F002168104452
:10311000886070BDA0FB010192185B41FDF71DF9AD
:103120000146B0FBF5F00201B1FBF5F06FF01803BA
:10313000584301EB800006EBC000B0FBF5F000F057
:10314000F80002EB4002B1FBF5F0584301EB8000C0
:1031500006EBC000B0FBF5F000F00700D6E700007A
:10316000001001400014014081628285C285002167
:103170004164222180F84210016921B10168CA68C6
:1031800042F48072CA6001684A6942F001024A61F1
:103190000068C16841F02001C16000207047000054
:1031A0000148FFF725BB0000B4810020FEE703B40F
:1031B00001984100009850EAC12018BF04204A0D30
:1031C00018BF40F0010040F2FF72B2EB515F08BF40
:1031D00040F00200012808BF052002B0704709072F
:1031E000090E002804DB00F1E02080F8001470478D
:1031F00000F00F0000F1E02080F8141D70477047C8
:1032000010B5002220210A2001F004FA01490860CB
:1032100010BD0000AC00002070B58AB0044600F07C
:1032200075FE207805282BD017484FF47A7215497F
:10323000406801F0E5FB012822D1124CAA208DF84C
:1032400000008DF8010020788DF8020062780026D9
:103250008DF80320A11C6D4601A8FDF761F9617886
:1032600000200A1D491D03E02B5C401C3344DEB2E4
:103270009042F9DB681800F8016C684600F0DEFE49
:103280000AB070BDB0820020A4000020064D88B0B6
:103290004FF0FF3422466946286801F0B1FB6846CA
:1032A00000F004F8F6E70000AC0000200178502997
:1032B00001D100F045BD70470146034800234FF49B
:1032C0007A72406801F03EBAA400002001B50448BB
:1032D00082B000236A4602A9006801F0E3FA0EBD3D
:1032E000A00000200FB4002810B518D10F4C94F89E
:1032F0002C00B8B15FF0000000EB400101EBC00012
:1033000004EB4000162203A9FDF70AF994F82C00FB
:1033100050B1002084F82C00FEF7AAFC206310BCFA
:103320005DF814FB0120E7E70120F3E71483002098
:1033300003490A685206FCD5C2B24A6070470000D1
:103340000010014010B50446014605484FF47A725A
:10335000006801F055FB012801D00020207010BD4D
:10336000A00000201CB5FEF78BFDFFF7E1FC00F08C
:1033700023FE00F035FEFFF7ABFC00F053FE00F03B
:10338000D3FCFFF73DFF07490220CDE900010023F0
:103390004FF4967204A1074801F008FC01F046F8CA
:1033A000FEE700000000002073746172745F7461B6
:1033B000736B0000493F00082DE9F041184C0F469F
:1033C0000546E6682068001D00F064FE38B92068F4
:1033D00090F82C1001208840216981432161681CEC
:1033E00007D137B12168BDE8F0410E48091D00F052
:1033F000A0BE20683544B5424560216805D2A06B67
:10340000BDE8F041091D00F07CBE606B091D00F0B5
:1034100078FEA06A854200D2A562BDE8F081000076
:103420001C000020F80700202DE9F041054600F0BF
:103430008DFE2D4CA068401CA06020682B4F10B161
:10344000606938B32CE02560A068012828D10026E7
:1034500006EB860007EB800000F045FE761C0A2E86
:10346000F6D32248C83000F03EFE2048DC3000F0A1
:103470003AFE1E48F03000F036FE1D4800F033FEE4
:103480001B48143000F02FFE19483C38606314309C
:10349000A06305E02068E96AC06A884200D8256018
:1034A000606A401C6062E96A01202269884010431A
:1034B000206101EB810007EB8000291D00F039FE3F
:1034C00000F064FE606900280CD02068E96AC06AD8
:1034D000884207D207494FF080500860BFF34F8FF2
:1034E000BFF36F8FBDE8F0811C000020E0060020D4
:1034F000E407002004ED00E038B500F027FE104C92
:103500002068C0B90F4800F0EEFD0E48143000F0FE
:10351000EAFD0C48E0601430206100200A4B009066
:1035200003F148020C21142001F095F8206010B13D
:1035300006A100F0ADFEBDE8384000F027BE000057
:1035400058000020440900200C080020546D7251DE
:103550000000000030B4026C0B46002A0BD0C1689A
:103560001144C1608468A14201D30168C16030BCCC
:103570001846FCF7D5BF30BC70472DE9F041856B8C
:10358000174604460026026C82B1C7B1E068FCF71A
:10359000C7FFE168206C091AE1602268914202D2FB
:1035A000A168081AE060022F16D017E02068A8B9B9
:1035B000A06801F0CDFB06460020A0600EE0606828
:1035C000FCF7AEFF216C606808446060A168884227
:1035D00004D32068606001E005B16D1E6D1CA56319
:1035E0003046BDE8F08110B5044690F8510058B15E
:1035F00001280CD002280FD0502080F31188BFF38F
:103600004F8FBFF36F8FFEE7206B00F0D3FD204696
:10361000BDE8104000F0CEBD10BD000010484FF4D2
:10362000F041420706D0C01D0D4920F00700411AA5
:10363000C1F5F0410B4A00230144C2E900030839F7
:10364000183A21F0070111604B600B600B1AC0E9BA
:10365000001393604FF000405360506170470000CA
:103660006C09002084000020154E164CA6F58277C8
:103670004FF08058DFF8509012E000BF00F066FD78
:10368000F068C568281D00F005FDA068401EA06018
:103690006068401E606000F079FD2846FFF7A3FFD8
:1036A00060680028EAD13868012805D9C9F8008087
:1036B000BFF34F8FBFF36F8F00F014FDF0E70000F2
:1036C000E40700201C00002004ED00E00346009801
:1036D00029B10260C0E90F31012100F0EFBF0060A5
:1036E000F8E72DE9F0479A46DDE9098481466FF055
:1036F0000303206B03EB82021044089E20F00707AF
:10370000780707D0502080F31188BFF34F8FBFF3A5
:103710006F8FFEE7002561B1002023180A5C83F853
:1037200034200A5C12B1401C1028F6D384F84350B0
:1037300001E084F834500A2E00D30926E662C4E979
:103740001165201D00F0DAFC04F1180000F0D6FC31
:103750002461C6F10A006462A061E56484F85050F7
:1037600052464946384600F055FA2060B8F1000F3D
:1037700001D0C8F80040BDE8F087000030B511491D
:1037800000E011460A688242FBD34B685C18844211
:1037900003D1406818444860084643681C189442A6
:1037A00009D1084C183C2468A24209D052681A4436
:1037B00042600A6812680260814200D0086030BD31
:1037C0000460F9E78400002070B5002441600B4DCF
:1037D0000061914206D8D11A8269914206D2011D38
:1037E000286907E09A4203D2994201D3012403E0F9
:1037F000011DE86800F085FC204670BD58000020DF
:1038000010B5044600F0A2FCA06B28B15FF00004E4
:1038100000F0BCFC204610BD0124F9E730B587B0AC
:10382000394D67E00498002864DB069C606910B19C
:10383000201D00F02FFC03A800F0D8F802460498E1
:103840000A2857D2DFE800F00505052D334A0505A3
:103850002D3394F8240040F0010084F824000599E9
:10386000A069059B01442046FFF7AEFF68B3216ABB
:103870002046884794F8240040073BD5002000905C
:103880000598A169002342181946204601F078FBEB
:10389000D8B9502080F31188BFF34F8FBFF36F8FDB
:1038A000FEE714F8240F20F00100207022E094F8C5
:1038B000240040F0010084F824000598A06128B19C
:1038C000811813462046FFF77FFF13E0502080F356
:1038D0001188BFF34F8FBFF36F8FFEE794F824007A
:1038E000810703D4204600F065FC03E020F00100CE
:1038F00084F82400002204A9286801F081F8002837
:1039000090D107B030BD0000580000202DE9FC41E7
:103910000F46054600F0CEFD01A800F067F804460A
:10392000019818B101F09AFABDE8FC81254EAFB1BB
:1039300030690068D0B30027291B3A46306800F090
:10394000BBFC01F08BFA0028EED11F494FF08050EC
:103950000860BFF34F8FBFF36F8FE5E7A542EBD849
:1039600001F07CFAF0682746C068C468201D00F0AA
:1039700091FB94F82400410719D5A0692B46411901
:103980003A462046FFF720FFA8B100200346014633
:1039900000902A46204601F0F3FA60B9502080F3E7
:1039A0001188BFF34F8FBFF36F8FFEE707E020F062
:1039B000010084F82400216A20468847B4E70127E3
:1039C000BAE700005800002004ED00E00648416B13
:1039D000096829B1416BC968C96849688162704743
:1039E0004FF0FF31FAE700001C00002070B50546DB
:1039F00001F042F9064E0446B068844203D200F05A
:103A000009F8012000E0002028602046B46070BD65
:103A100058000020F8B5194D20E0C068C468066859
:103A2000201D00F037FB216A2046884794F82400C7
:103A3000400713D5A0693044B04206D924616060C4
:103A4000211DE86800F05DFB08E000200346014608
:103A500000903246204601F093FA38B1E8680168D8
:103A60000029DAD12969C5E90310F8BD502080F397
:103A70001188BFF34F8FBFF36F8FFEE75800002010
:103A800008484068401C4FF0500080F3118804D073
:103A9000BFF34F8FBFF36F8FFEE7BFF34F8FBFF3BF
:103AA0006F8FFEE78C000020074CE068016841B191
:103AB000C0680021D0F80000FFF728FFFFF7AEFE36
:103AC000F3E701210020F7E7580000202DE9F0413D
:103AD000044600F03BFB94F9455004F1240609E04C
:103AE000606A48B1304601F07FF908B100F064FC2B
:103AF0006D1E6DB2002DF3DC4FF0FF3684F845608B
:103B000000F044FB00F022FB94F9445004F110074C
:103B100009E0206948B1384601F066F908B100F0C3
:103B20004BFC6D1E6DB2002DF3DC84F84460BDE8E3
:103B3000F04100F02BBB00002DE9F04105460027C5
:103B400000F0B8FC324E306808B9FFF767FD7069C5
:103B500005424ED1C5B3083568070ED005F0070001
:103B6000C0F108000544680707D0502080F3118891
:103B7000BFF34F8FBFF36F8FFEE72DB370688542A1
:103B800037D82348183001460C6801E020460C461F
:103B90006168A94202D221680029F7D131688C42BC
:103BA00027D007682168016060680837411B102929
:103BB0000FD96019420708D0502080F31188BFF355
:103BC0004F8FBFF36F8FFEE713E041606560FFF733
:103BD000D5FD61687068401A7060B268904200D28A
:103BE000B060706901430020C4E90001F068401C26
:103BF000F06001F033F9780707D0502080F3118886
:103C0000BFF34F8FBFF36F8FFEE73846BDE8F081FB
:103C10006C00002010B5031F4FF080741C601B1F48
:103C200021F001011960191F044B0B6014390A605F
:103C3000091F6FF0020244380A6010BD813A000883
:103C400008B500272D4DDFF8B8803E462F703C4662
:103C50006846FFF777FB0028FAD028780628F7D2C5
:103C6000DFE800F0030C171D29389DF80040AA2C4E
:103C700002D000202870EBE70120FBE79DF8000050
:103C8000AF2804D0002120442970C4B2E0E702210B
:103C9000F9E79DF8000088F800000321F3E79DF89C
:103CA00000001E2827D888F80100002608B104214A
:103CB000E9E70521E7E708EB06029DF8001091709F
:103CC000761C98F80100F6B22144CCB2B042BFD1C4
:103CD0000520CFE79DF80000844208D198F8001035
:103CE00008A0FCF7B1FB0648FFF796FA03E02F7037
:103CF00008A0FCF7A9FB2F70AAE70000A400002091
:103D0000D08200206D736769642069732025580A8A
:103D1000000000006E7266CAFDBEDDD0A3D1E9B41A
:103D2000EDCEF30A0000000010B5002220211E2075
:103D300000F070FC0149486010BD0000A4000020A4
:103D400010B50446807890B0012814D0E07800289F
:103D500062D138A0FCF778FBE078012862D0032814
:103D60005CD004285CD0052856D136A010B0BDE840
:103D70001040FCF769BB35A0FCF766FB1B22E11C79
:103D800009A8FCF7CDFB354C0998DFED350A20601A
:103D90000A9860600B98A0609DED0C0A20EE200A46
:103DA000BCEEC00A10EE100AA0820D98E0600E98DA
:103DB00020619DF83C0000F0B7F89DF83D0000F050
:103DC000BBF8206801F028F941EC100B25A053EC5A
:103DD000102BFCF739FB606801F01EF941EC100B69
:103DE00024A053EC102BFCF72FFBA18A25A0FCF795
:103DF0002BFBE068009020690190A08AADF80800D4
:103E00001622214603A8FCF78BFB0DF10C0C0020B9
:103E10009CE80E00FFF766FA10B010BD1CA0A5E7E5
:103E20001DA0A3E71FA0FCF70FFB10B0BDE81040DA
:103E300000F040B8BFD8D6C6C3FCC1EEB4A6C0EDF2
:103E40000A000000BFD5B7AD0A000000BFD8D6C633
:103E5000CAFDBEDDB4A6C0ED0A000000F08200205D
:103E600066D62344726F6C6CBDC7B6C8CEAA2566F1
:103E70000A0000007069746368BDC7B6C8CEAA2581
:103E8000660A0000D3CDC3C5CEAA25660A0000008D
:103E9000BDB5C2E40A000000BDF4BCB1CDA3D6B9E3
:103EA0000A000000B7A2CBCDBBD8B8B4D0C5CFA212
:103EB0000A00000010B5134888B00D2101700122DE
:103EC0004270114C8270C270237800212BB15B1EAE
:103ED0002370C0F80A10C0F806100171417150201B
:103EE0008DF800000F208DF801008DF802200E22C1
:103EF00004490DF10300FCF713FB6846FFF7DCF9FA
:103F000008B010BD06830020B0000020014605481F
:103F100010B500235A1E006800F014FC002800D0E1
:103F2000012010BDAC00002002490A7860F30102B4
:103F30000A707047B100002002490A7860F3451208
:103F40000A707047B10000207CB500F0FFF80F4800
:103F50000F24CDE900404FF4967500232A460CA1AA
:103F60000F4800F023FE09480023001DCDE9004062
:103F70002A460CA10F4800F019FE0448001F0068F3
:103F800000F0BCF9BDE87C4000F000B9040000205E
:103F9000726164696F5F636F6D6D5F7461736B00F5
:103FA000413C000861746B705F72785F7461736B81
:103FB000000000008D3200080848074901604FF4F6
:103FC000E1314160002181600C22C160C0E904122E
:103FD0008161C161FEF744BD001001406C81002089
:103FE0000D4810B50B4901600C494160002181600A
:103FF0000C22C160C0E904124FF40072C0E906212E
:10400000FEF72EFDBDE81040012205490248FEF7EB
:10401000F9BD000000440040B481002040420F0080
:104020009C00002010B501210022880200F0F2FA65
:104030000149086010BD0000A00000202DE9F041FA
:104040008AB201460F48FEF703FE0F4D10480F4B92
:10405000543D0E4A0C4C0D4F2E1F603B0068B83A81
:10406000A04201D9296808E0B84201D9316804E0CA
:10407000984201D9516800E0116811F4001FEFD097
:10408000BDE8F081B481002058640240B86002406D
:10409000FC810020D0E9013201699A60D0E9012356
:1040A0005A604A68824201D182684A6000220261F5
:1040B0000868401E0860086870470000034B0360F2
:1040C00003F1540008609620106070470001002042
:1040D000034B036003F154000860962010607047A2
:1040E000AC030020704700F108014FF0FF32C0E937
:1040F0000112C1600161002101607047002101616E
:10410000704730B50B685A1C02D000F1080202E07B
:10411000026904E02246546825689D42FAD9536832
:104120004B6099608A60516008610168491C0160B8
:1041300030BD42684A6093688B60936859609160B3
:1041400008610168491C016070470000502080F33D
:104150001188BFF34F8FBFF36F8F0A494868401C27
:10416000486001280CD10848006810F0FF0F07D004
:10417000502080F31188BFF34F8FBFF36F8FFEE79E
:10418000704700008C00002004ED00E008494868FA
:1041900028B1401E486001D180F31188704750203B
:1041A00080F31188BFF34F8FBFF36F8FFEE70000DE
:1041B0008C00002070B500282AD0164DA0F108040C
:1041C00060686969084207D1502080F31188BFF305
:1041D0004F8FBFF36F8FFEE722683AB1502080F314
:1041E0001188BFF34F8FBFF36F8FFEE78843606086
:1041F00000F060F960686968084468602046FFF76D
:10420000BDFA2869401C2861BDE8704000F026BE58
:1042100070BD00006C0000204FF0E0200021016123
:10422000816105494FF47A720968B1FBF2F1491EC8
:1042300041610721016170471800002010B5FCF7AB
:1042400067F8114910280ED300F1E02090F8F00330
:104250000A78904207D2502080F31188BFF34F8F25
:10426000BFF36F8FFEE709480068896800F4E060DB
:10427000884207D9502080F31188BFF34F8FBFF3D6
:104280006F8FFEE710BD00008C0000200CED00E0F9
:1042900010B5084B002200BF53F832401CB1521C2D
:1042A000082AF9D310BD43F8321003EBC20148606D
:1042B00010BD0000A006002070B515460E4604464D
:1042C000FFF744FF94F944100020491C01D184F801
:1042D000440094F94510491C01D184F84500FFF7CA
:1042E00055FFA06B28B92A46314604F1240000F09E
:1042F00081F82046BDE87040FFF7E8BB70B5054681
:10430000FFF724FF244C05B92568281DFFF7C2FEDE
:1043100058B9E86A214A00EB800152F8211021B90E
:1043200001218140206988432061A86A18B105F104
:104330001800FFF7AFFE606A401C6062206885428B
:1043400007D1291D1648FFF7F4FE6068401C606025
:1043500007E0A068401EA0602846FFF744F9FFF779
:1043600035FBFFF713FF6069002814D020688542F1
:1043700011D1206B38B1502080F31188BFF34F8FDB
:10438000BFF36F8FFEE707494FF080500860BFF31F
:104390004F8FBFF36F8F70BD1C000020E006002020
:1043A000E407002004ED00E002490A6A0260C968DF
:1043B000416070471C00002001490120C86170471E
:1043C0001C00002010B50C4650B10949096818318D
:1043D000FFF797FE2046BDE810400121FEF7ECBF35
:1043E000502080F31188BFF34F8FBFF36F8FFEE72C
:1043F0001C00002070B514460D4668B10A490968D2
:104400001831FFF796FE0CB14FF0FF3521462846D4
:10441000BDE87040FEF7D0BF502080F31188BFF395
:104420004F8FBFF36F8FFEE71C00002030B587B0C1
:104430000024039405AA04A903A80494FFF73EFEF0
:10444000DDE903010094CDE90110002315A117480F
:10445000059A00F0D8FB164D0028E8621FD000F046
:104460005FFD012809D0401C19D1502080F311882C
:10447000BFF34F8FBFF36F8FFEE7502080F311889B
:10448000BFF34F8FBFF36F8F4FF0FF30A862012053
:104490006861EC6007B0BDE8304000F041B807B09B
:1044A00030BD000049444C4500000000693600085A
:1044B0001C0000200248016B491C0163704700008A
:1044C0001C0000201448016B11B10121C16170472B
:1044D0000021C1610169B1FA81F1C1F11F0101EB54
:1044E00081020E4951F822306BB101EB820101F1DA
:1044F00008034A6852684A609A4201D152684A6089
:10450000D16801607047502080F31188BFF34F8F4E
:10451000BFF36F8FFEE700001C000020E0060020C4
:104520001CB537480168374A914207D1502080F3C3
:104530001188BFF34F8FBFF36F8FFEE700683149DB
:10454000491E884207D1502080F31188BFF34F8F56
:10455000BFF36F8FFEE72C4908780190FF200870A9
:1045600008788DF800009DF800009DF8002000F00C
:10457000F000904207D0502080F31188BFF34F8F96
:10458000BFF36F8FFEE79DF80000204C00F0500055
:1045900020700720A06005E09DF8002052008DF8F3
:1045A0000020401E9DF800201206F5D4A0600328CC
:1045B00007D0502080F31188BFF34F8FBFF36F8F68
:1045C000FEE74FF44070A060019808700C4820305E
:1045D000016841F470010160016841F070410160BF
:1045E000FFF71AFE00206060FBF75AFE08480168DA
:1045F00041F040410160FBF73FFE00201CBD000080
:1046000000ED00E071C20F4100E400E08C000020EA
:1046100034EF00E0F8B517460E46050013D005FB51
:1046200006F04830FFF788FA04000AD0002084F82A
:10463000460004F148023B46314628460094FFF705
:1046400045F82046F8BD502080F31188BFF34F8F06
:10465000BFF36F8FFEE738B5049D18B153B1CAB1EF
:1046600081B120E0502080F31188BFF34F8FBFF35A
:104670006F8FFEE7502080F31188BFF34F8FBFF399
:104680006F8FFEE7502080F31188BFF34F8FBFF389
:104690006F8FFEE739B1502080F31188BFF34F8F41
:1046A000BFF36F8FFEE748241C46012384F8463091
:1046B0002B460094FFF70AF8204638BD70B50D462A
:1046C000040025D0FFF742FDD4E90F20216802FB4A
:1046D0000011A1600021A163216861600A46D4E94C
:1046E0000F01401E00FB0121E16021464FF0FF3029
:1046F00001F8440F487004F110008DB1FFF7F3FC8E
:1047000004F12400FFF7EFFCFFF740FD012070BD2E
:10471000502080F31188BFF34F8FBFF36F8FFEE7F8
:1047200021690029F0D000F05FFB0028ECD004499B
:104730004FF080500860BFF34F8FBFF36F8FE3E7F8
:1047400004ED00E02DE9FF4782B01D468A464FF098
:104750000008040003D0BAF1000F08D011E0502087
:1047600080F31188BFF34F8FBFF36F8FFEE7206C8C
:1047700038B1502080F31188BFF34F8FBFF36F8F94
:10478000FEE7022D0AD1E06B012807D0502080F30C
:104790001188BFF34F8FBFF36F8FFEE700F05EFA13
:1047A0003F4F4FF000094FF0805648B9049838B198
:1047B000502080F31188BFF34F8FBFF36F8FFEE758
:1047C000FFF7C4FCA06BE16B884207D3022D05D034
:1047D0000498D0B1B8F1000F1AD01EE02A46514615
:1047E0002046FEF7CAFE616A19B104F1240000F008
:1047F000FBFA20B13E60BFF34F8FBFF36F8FFFF71F
:10480000C5FC012006B0BDE8F087FFF7BFFC22E041
:104810006846FFF7C9FD4FF00108FFF7B7FCFFF747
:1048200049FEFFF793FC94F94400401C01D184F841
:10483000449094F94500401C01D184F84590FFF75D
:10484000A5FC04A9684600F077F930B12046FFF7CF
:104850003DF900F003FB0020D4E7FFF777FCA06BE5
:10486000E16B884213D1FFF791FC04F11000049929
:10487000FFF7A8FD2046FFF729F900F0EFFA00281E
:104880009ED13E60BFF34F8FBFF36F8F98E7FFF766
:104890007DFC2046FFF71AF900F0E0FA90E70000EF
:1048A00004ED00E02DE9F0471F46904689460400DC
:1048B00003D0B9F1000F08D011E0502080F3118827
:1048C000BFF34F8FBFF36F8FFEE7206C38B15020DE
:1048D00080F31188BFF34F8FBFF36F8FFEE7022F76
:1048E0000AD1E06B012807D0502080F31188BFF374
:1048F0004F8FBFF36F8FFEE7FFF7A0FC5020EFF361
:10490000118680F31188BFF34F8FBFF36F8FA06BB9
:10491000E16B884206D3022F04D0002086F3118871
:10492000BDE8F08794F94550A06B3A4649462046C9
:10493000FEF723FE681C04D06D1C84F8455001204E
:10494000ECE7606A0028FAD004F1240000F04CFA89
:104950000028F4D0B8F1000FF1D00121C8F8001000
:10496000EDE770B50E46040009D0206C78B15020F8
:1049700080F31188BFF34F8FBFF36F8FFEE7502096
:1049800080F31188BFF34F8FBFF36F8FFEE720686E
:1049900048B9A06838B1502080F31188BFF34F8F19
:1049A000BFF36F8FFEE7FFF749FC5020EFF311854F
:1049B00080F31188BFF34F8FBFF36F8FA16BE06B54
:1049C000884218D994F94500491CA163411C04D0C0
:1049D000401C84F8450001200EE0606A0028FAD0EF
:1049E00004F1240000F000FA0028F4D0002EF2D0E8
:1049F00001203060EFE7002085F3118870BD0000D2
:104A00002DE9F747002683B08A46040003D0BAF1A7
:104A1000000F08D011E0502080F31188BFF34F8FB2
:104A2000BFF36F8FFEE7206C38B1502080F3118800
:104A3000BFF34F8FBFF36F8FFEE700F00FF9DFF882
:104A4000F4804FF000094FF0805748B9059838B10D
:104A5000502080F31188BFF34F8FBFF36F8FFEE7B5
:104A6000FFF774FBA56BC5B151462046FEF772FDFA
:104A70006D1EA563206950B104F1100000F0B4F977
:104A800028B1C8F80070BFF34F8FBFF36F8FFFF7E7
:104A90007DFB012006B0BDE8F087059808B11EB186
:104AA00006E0FFF773FB27E06846FFF77DFC012671
:104AB000FFF76CFBFFF7FEFCFFF748FB94F944009F
:104AC000401C01D184F8449094F94500401C01D168
:104AD00084F84590FFF75AFB05A9684600F02CF8CA
:104AE000002820460AD0FEF7F1FF00F0B7F9204673
:104AF000FEF786FE0028B3D00020CBE7FEF780FE4D
:104B000090B104F124000599FFF75CFC2046FEF704
:104B1000DDFF00F0A3F90028A2D1C8F80070BFF3B0
:104B20004F8FBFF36F8F9BE72046FEF7CFFF00F05C
:104B300095F995E704ED00E02DE9F0410C460500FC
:104B400011D0C4B1FFF702FB174BDA686E6820681A
:104B5000911B471C17D02F681B6A9F4219D09642A1
:104B600017D8012410E0502080F31188BFF34F8F35
:104B7000BFF36F8FFEE7502080F31188BFF34F8F94
:104B8000BFF36F8FFEE70024FFF700FB2046BDE870
:104B9000F081884205D9401A20602846FFF704FCBE
:104BA000F1E700202060DCE71C0000202DE9FF5F1A
:104BB0008346DDE90E87994616468A469000FEF741
:104BC000BBFF05001CD05420FEF7B6FF040014D034
:104BD0000020256384F85100CDE90240CDE900872B
:104BE0004B46324651465846FEF77BFD2046FEF7BF
:104BF0001BFC012004B0BDE8F09F2846FFF7DAFA5D
:104C00004FF0FF30F6E7F0B585B0DDE90B640A9DA3
:104C1000A6B1DCB1542700972663022684F85160C0
:104C2000002604AFCDE90246CDE90057FEF759FD55
:104C30002046FEF7F9FB049805B0F0BD502080F344
:104C40001188BFF34F8FBFF36F8FFEE7502080F3C3
:104C50001188BFF34F8FBFF36F8FFEE7054841699F
:104C600019B1006B18B10020704701207047022075
:104C7000704700001C0000200148C0687047000019
:104C80001C0000202DE9F0412F4C0026206B28B19C
:104C9000A069401CA0613046BDE8F081E5686D1C4C
:104CA000E56013D1606B006838B1502080F3118843
:104CB000BFF34F8FBFF36F8FFEE7606BA16B616334
:104CC000A063206A401C2062FEF780FEA06ADFF825
:104CD0007C80854209D3606B0068A0B1606BC068BE
:104CE000C7687868854211D2A0622068C06A00EB6C
:104CF000800158F82100012800D90126E069002828
:104D0000C9D00126C7E74FF0FF30EDE7381DFFF7A8
:104D1000C1F9B86A18B107F11800FFF7BBF9F96AD1
:104D20000120226988401043206101EB810108EBDA
:104D30008100391DFFF7FDF9F86A2168C96A8842C8
:104D4000C9D30126C7E700001C000020E0060020B0
:104D500070B504004FF0000140D0214D2868844216
:104D600007D0502080F31188BFF34F8FBFF36F8FB0
:104D7000FEE7A06C38B1401EA064636CE26A9A4200
:104D80002CD040B12AE0502080F31188BFF34F8F20
:104D9000BFF36F8FFEE7201DFFF77CF9114A012159
:104DA00050B9E06A00EB800352F8233023B92B6935
:104DB00001FA00F083432B61606CE062C0F10A00ED
:104DC000A061E06A2B6981401943296100EB8000F2
:104DD00002EB8000211DFFF7ACF90121084670BDF0
:104DE0001C000020E00600202DE9F041C068C468E6
:104DF000ACB104F118000746FFF74CF9154D286BCC
:104E00000126A0B139461448FFF793F9E06A2968F2
:104E1000C96A88421CD90120EE61BDE8F0815020AA
:104E200080F31188BFF34F8FBFF36F8FFEE7201D14
:104E3000FFF730F9E16A2A6906FA01F010432861A8
:104E400001EB81000449F03901EB8000211DDBE713
:104E50000020E2E71C000020D00700202DE9F047E9
:104E60002C4D00242746286B38B1FFF76FF9286BCB
:104E7000401E2863286B40B146E0502080F3118823
:104E8000BFF34F8FBFF36F8FFEE7A968224E01205B
:104E9000D1B3A6F1F00980463068E8B1F068C46883
:104EA00004F11800FFF7F6F8201DFFF7F3F8E06AA9
:104EB0002A6908FA00F11143296100EB800109EB2E
:104EC0008100211DFFF735F9E06A2968C96A884227
:104ED000E2D3C5F81C80DFE70CB1FEF777FDAC69C3
:104EE00044B14646FFF7CEFE00B1EE61641EF9D133
:104EF0000020A861E86938B108490127380708602F
:104F0000BFF34F8FBFF36F8FFFF740F93846BDE80F
:104F1000F08700001C000020D007002004ED00E016
:104F200010B586B0FEF7E8FA114C2068B8B1002041
:104F30000390049005AA04A903A8FFF7C9F8DDE9C6
:104F4000032101208DE8070000230AA10B48059AE0
:104F5000FFF759FE606010B106B0012010BD50206F
:104F600080F31188BFF34F8FBFF36F8FFEE7000010
:104F700058000020546D722053766300A93A00084F
:104F8000FEB51E4613460200089D4FF0000014D0E7
:104F9000124C2768002F0FD0CDE90013029206298A
:104FA00015DAFFF75BFE02284FF000030DD0002258
:104FB00069462068FFF7C6FBFEBD502080F31188CC
:104FC000BFF34F8FBFF36F8FFEE72A46F0E7002352
:104FD000324669463846FFF765FCFEBD58000020A2
:104FE00010B500290AD00878002807D00548784471
:104FF000FBF7FCFE002801D0002010BD02487844D9
:1050000010BD0000160200000E0200000808A0F506
:1050100000114FEA3101704743004FEAD30C4FEAC9
:105020003C0C43401FBF40070CF1605113F0FE4F92
:1050300070471CF0006F03D100200CF00041704756
:105040000CF0004343EA507010B540EACC0000F089
:105050000EF800BF000000924FEA0001FFF7D6BF34
:105060004FF000414FF00000A1F5002170470EF114
:10507000020E2EF0030E5EF8044B244204D44FEAD5
:105080004102B2F17F4F11D84FEA4003B3F17F4F95
:105090000CD80ED14FEAD07CB2F17F4F0CEB4C0C08
:1050A0000CF1020C08BF4CEBD17C04E04FF0080C73
:1050B00001E04FEAD17C0CEB4C0324FA03F404F03A
:1050C0000704B4F1040C06D20EEB840CBDE81040CA
:1050D0004CF0010C6047DFE80CF0070802024FF0CB
:1050E0000040A0F5800010BD0846420018BFD2F174
:1050F000807288BF00F0004010BD4FF04070E1EEBC
:10510000100A7047FBF7AEBB00061016000610161B
:105110000000000000000000010203040607080967
:1051200000000000010203043031323334353637D9
:1051300038394142434445464030580030313233DB
:1051400034353637383961626364656640307800DB
:1051500002400000000000A0000000000540000028
:10516000000000C8000000000C4000000000409C4F
:1051700000000000194000000020BCBE000000003C
:1051800034400000BFC91B8E00000004B540000081
:10519000504BCFD06607E2CF010000006C41000009
:1051A0003E8251AADFEEA73401000000D942000080
:1051B000DCB5A0E23A301F97FFFFFFFFB4450000C7
:1051C000FD25A0C8E9A3C14FFFFFFFFFFF3F00007F
:1051D0000000008000000000FF3F00000000008091
:1051E0000000000020520008000000200001000024
:1051F000D40100082053000800010020A888000006
:10520000F00100081C00000043000000F8FFFFFF51
:105210000C0000000E0000000F0000002E00000037
:10522000000000000000000000000000010000007D
:1052300010000000000000000024F4000000000046
:10524000000000000000000000000000000000005E
:10525000000000000000000000000000000000004E
:10526000000000000000000000000000000000003E
:10527000000000000000000000000000000000002E
:10528000000000000000000000000000000000001E
:10529000000000000000000000000000000000000E
:1052A00000000000000000000000000000000000FE
:1052B000AAAAAAAA00000000000000000000000046
:1052C00000000000000000000000000000000000DE
:1052D00003000000000000000000000000000000CB
:1052E0000000803F000000000000000000000000FF
:1052F00000000000000000000000000000000000AE
:10530000000000000000000000000000000000009D
:10531000000000000000000000000000000000008D
:040000050800019955
:00000001FF
